{"contracts/Ledger.sol":{"Ledger":{"abi":[{"anonymous":false,"inputs":[{"indexed":true,"internalType":"uint256","name":"groupId","type":"uint256"},{"indexed":true,"internalType":"uint256","name":"expenseId","type":"uint256"},{"indexed":true,"internalType":"address","name":"payer","type":"address"},{"indexed":false,"internalType":"address","name":"token","type":"address"},{"indexed":false,"internalType":"uint256","name":"amount","type":"uint256"},{"indexed":false,"internalType":"bytes","name":"splitData","type":"bytes"},{"indexed":false,"internalType":"string","name":"cid","type":"string"},{"indexed":false,"internalType":"string","name":"memo","type":"string"},{"indexed":false,"internalType":"uint256","name":"timestamp","type":"uint256"}],"name":"ExpenseAdded","type":"event"},{"anonymous":false,"inputs":[{"indexed":true,"internalType":"uint256","name":"groupId","type":"uint256"},{"indexed":true,"internalType":"uint256","name":"expenseId","type":"uint256"},{"indexed":true,"internalType":"address","name":"actor","type":"address"}],"name":"ExpenseVoided","type":"event"},{"anonymous":false,"inputs":[{"indexed":true,"internalType":"uint256","name":"groupId","type":"uint256"},{"indexed":true,"internalType":"address","name":"creator","type":"address"},{"indexed":false,"internalType":"string","name":"name","type":"string"},{"indexed":false,"internalType":"address[]","name":"members","type":"address[]"}],"name":"GroupCreated","type":"event"},{"anonymous":false,"inputs":[{"indexed":true,"internalType":"uint256","name":"groupId","type":"uint256"},{"indexed":true,"internalType":"address","name":"member","type":"address"}],"name":"MemberAdded","type":"event"},{"anonymous":false,"inputs":[{"indexed":true,"internalType":"uint256","name":"groupId","type":"uint256"},{"indexed":true,"internalType":"address","name":"member","type":"address"}],"name":"MemberRemoved","type":"event"},{"anonymous":false,"inputs":[{"indexed":true,"internalType":"bytes32","name":"receiptHash","type":"bytes32"},{"indexed":true,"internalType":"uint256","name":"groupId","type":"uint256"},{"indexed":false,"internalType":"address","name":"debtor","type":"address"},{"indexed":false,"internalType":"address","name":"creditor","type":"address"},{"indexed":false,"internalType":"address","name":"token","type":"address"},{"indexed":false,"internalType":"uint256","name":"amount","type":"uint256"},{"indexed":false,"internalType":"uint256","name":"dstChainId","type":"uint256"},{"indexed":false,"internalType":"bytes32","name":"dstTxHash","type":"bytes32"},{"indexed":false,"internalType":"uint256","name":"timestamp","type":"uint256"}],"name":"SettlementFinalized","type":"event"},{"anonymous":false,"inputs":[{"indexed":true,"internalType":"bytes32","name":"intentHash","type":"bytes32"},{"indexed":true,"internalType":"uint256","name":"groupId","type":"uint256"},{"indexed":false,"internalType":"address","name":"debtor","type":"address"},{"indexed":false,"internalType":"address","name":"creditor","type":"address"},{"indexed":false,"internalType":"string","name":"routeId","type":"string"}],"name":"SettlementIntentCreated","type":"event"},{"inputs":[{"internalType":"uint256","name":"groupId","type":"uint256"},{"internalType":"address","name":"payer","type":"address"},{"internalType":"address","name":"token","type":"address"},{"internalType":"uint256","name":"amount","type":"uint256"},{"internalType":"bytes","name":"splitData","type":"bytes"},{"internalType":"string","name":"cid","type":"string"},{"internalType":"string","name":"memo","type":"string"}],"name":"addExpense","outputs":[{"internalType":"uint256","name":"eid","type":"uint256"}],"stateMutability":"nonpayable","type":"function"},{"inputs":[{"internalType":"uint256","name":"groupId","type":"uint256"},{"internalType":"address","name":"member","type":"address"}],"name":"addMember","outputs":[],"stateMutability":"nonpayable","type":"function"},{"inputs":[{"internalType":"string","name":"name","type":"string"},{"internalType":"address[]","name":"members","type":"address[]"}],"name":"createGroup","outputs":[{"internalType":"uint256","name":"gid","type":"uint256"}],"stateMutability":"nonpayable","type":"function"},{"inputs":[{"internalType":"uint256","name":"groupId","type":"uint256"},{"internalType":"bytes32","name":"intentHash","type":"bytes32"},{"internalType":"address","name":"debtor","type":"address"},{"internalType":"address","name":"creditor","type":"address"},{"internalType":"string","name":"routeId","type":"string"}],"name":"createSettlementIntent","outputs":[],"stateMutability":"nonpayable","type":"function"},{"inputs":[{"internalType":"uint256","name":"groupId","type":"uint256"},{"internalType":"address","name":"debtor","type":"address"},{"internalType":"address","name":"creditor","type":"address"},{"internalType":"address","name":"token","type":"address"},{"internalType":"uint256","name":"amount","type":"uint256"},{"internalType":"uint256","name":"dstChainId","type":"uint256"},{"internalType":"bytes32","name":"dstTxHash","type":"bytes32"},{"internalType":"bytes32","name":"settleIntentHash","type":"bytes32"},{"internalType":"bytes","name":"","type":"bytes"},{"internalType":"bytes","name":"","type":"bytes"}],"name":"finalizeSettlement","outputs":[],"stateMutability":"nonpayable","type":"function"},{"inputs":[{"internalType":"uint256","name":"","type":"uint256"},{"internalType":"address","name":"","type":"address"}],"name":"isMember","outputs":[{"internalType":"bool","name":"","type":"bool"}],"stateMutability":"view","type":"function"},{"inputs":[],"name":"nextExpenseId","outputs":[{"internalType":"uint256","name":"","type":"uint256"}],"stateMutability":"view","type":"function"},{"inputs":[],"name":"nextGroupId","outputs":[{"internalType":"uint256","name":"","type":"uint256"}],"stateMutability":"view","type":"function"},{"inputs":[{"internalType":"uint256","name":"groupId","type":"uint256"},{"internalType":"address","name":"member","type":"address"}],"name":"removeMember","outputs":[],"stateMutability":"nonpayable","type":"function"},{"inputs":[{"internalType":"uint256","name":"groupId","type":"uint256"},{"internalType":"uint256","name":"expenseId","type":"uint256"}],"name":"voidExpense","outputs":[],"stateMutability":"nonpayable","type":"function"}],"evm":{"bytecode":{"linkReferences":{},"object":"608060405234801561001057600080fd5b50610a1c806100206000396000f3fe608060405234801561001057600080fd5b506004361061009e5760003560e01c80637d9e10f5116100665780637d9e10f51461010d578063cecbbbda1461014b578063cfbe575c1461015e578063d547309914610171578063fb9b4bae1461018457600080fd5b80633831238e146100a35780635eda7a76146100b85780636be7658b146100d45780636f9a66b8146100e757806374d0a676146100fa575b600080fd5b6100b66100b136600461054c565b61018d565b005b6100c160005481565b6040519081526020015b60405180910390f35b6100b66100e236600461062c565b610265565b6100b66100f5366004610658565b6102bd565b6100b661010836600461062c565b6102f0565b61013b61011b36600461062c565b600260209081526000928352604080842090915290825290205460ff1681565b60405190151581526020016100cb565b6100c161015936600461067a565b61034b565b6100c161016c36600461074b565b6103c5565b6100b661017f3660046107e5565b6104a0565b6100c160015481565b6040805160208082018f90526001600160a01b038e81168385018190528e821660608501819052918e166080850181905260a085018e905260c085018d905260e085018c90526101008086018c9052865180870390910181526101208601968790528051940193909320945261014083015261016082015261018081018a90526101a081018990526101c08101889052426101e08201528d9082907fd5520b237c4f3ab12489aaf6a1b373b49e4a288255b3625fe018a3900a84e83a906102000160405180910390a350505050505050505050505050565b60008281526002602090815260408083206001600160a01b0385168085529252808320805460ff1916905551909184917f1c4c9d2e56d0635d11bc47c997c6909a0d7061f55cbb8f4b27386db37553191c9190a35050565b6040513390829084907fd61ccc6fd5e0788f866425ead0be505da83d52faf8a038b50cc9f24acf26538290600090a45050565b60008281526002602090815260408083206001600160a01b0385168085529252808320805460ff1916600117905551909184917ff328ac0f8bcae00933fe87ba0aa2d0d505c1df94bc9c1aa05b8441c28b74032c9190a35050565b600060016000815461035c9061085d565b9190508190559050896001600160a01b0316818c7f3ed881d8ee7c42ed2c207830507a64e3367e2b4f79eb99eb02ee8dcebb6f0f118c8c8c8c8c8c8c8c426040516103af999897969594939291906108ad565b60405180910390a49a9950505050505050505050565b600080600081546103d59061085d565b9182905550905060005b8281101561044f57600082815260026020526040812060019186868581811061040a5761040a610914565b905060200201602081019061041f919061092a565b6001600160a01b031681526020810191909152604001600020805460ff19169115159190911790556001016103df565b50336001600160a01b0316817f3dc2b49c6afb62243d06266cdbf1f38eb359e6d274ef996ce11adc7d5d99b9fa87878787604051610490949392919061094c565b60405180910390a3949350505050565b85857f0624c5b67579ddbc2f54f30327e431662a24f0da04642efaf940841a39306535868686866040516104d794939291906109af565b60405180910390a3505050505050565b80356001600160a01b03811681146104fe57600080fd5b919050565b60008083601f84011261051557600080fd5b50813567ffffffffffffffff81111561052d57600080fd5b60208301915083602082850101111561054557600080fd5b9250929050565b6000806000806000806000806000806000806101408d8f03121561056f57600080fd5b8c359b5061057f60208e016104e7565b9a5061058d60408e016104e7565b995061059b60608e016104e7565b985060808d0135975060a08d0135965060c08d0135955060e08d0135945067ffffffffffffffff6101008e013511156105d357600080fd5b6105e48e6101008f01358f01610503565b909450925067ffffffffffffffff6101208e0135111561060357600080fd5b6106148e6101208f01358f01610503565b81935080925050509295989b509295989b509295989b565b6000806040838503121561063f57600080fd5b8235915061064f602084016104e7565b90509250929050565b6000806040838503121561066b57600080fd5b50508035926020909101359150565b60008060008060008060008060008060e08b8d03121561069957600080fd5b8a3599506106a960208c016104e7565b98506106b760408c016104e7565b975060608b0135965060808b013567ffffffffffffffff808211156106db57600080fd5b6106e78e838f01610503565b909850965060a08d013591508082111561070057600080fd5b61070c8e838f01610503565b909650945060c08d013591508082111561072557600080fd5b506107328d828e01610503565b915080935050809150509295989b9194979a5092959850565b6000806000806040858703121561076157600080fd5b843567ffffffffffffffff8082111561077957600080fd5b61078588838901610503565b9096509450602087013591508082111561079e57600080fd5b818701915087601f8301126107b257600080fd5b8135818111156107c157600080fd5b8860208260051b85010111156107d657600080fd5b95989497505060200194505050565b60008060008060008060a087890312156107fe57600080fd5b8635955060208701359450610815604088016104e7565b9350610823606088016104e7565b9250608087013567ffffffffffffffff81111561083f57600080fd5b61084b89828a01610503565b979a9699509497509295939492505050565b60006001820161087d57634e487b7160e01b600052601160045260246000fd5b5060010190565b81835281816020850137506000828201602090810191909152601f909101601f19169091010190565b60018060a01b038a16815288602082015260c0604082015260006108d560c08301898b610884565b82810360608401526108e881888a610884565b905082810360808401526108fd818688610884565b9150508260a08301529a9950505050505050505050565b634e487b7160e01b600052603260045260246000fd5b60006020828403121561093c57600080fd5b610945826104e7565b9392505050565b604081526000610960604083018688610884565b8281036020848101919091528482528591810160005b868110156109a2576001600160a01b0361098f856104e7565b1682529282019290820190600101610976565b5098975050505050505050565b6001600160a01b038581168252841660208201526060604082018190526000906109dc9083018486610884565b969550505050505056fea26469706673582212204f802b968331b0ed7cd0ac24e7b75e526918175f1db442bc3e5a6b924ea5e3fb64736f6c63430008180033","opcodes":"PUSH1 0x80 PUSH1 0x40 MSTORE CALLVALUE DUP1 ISZERO PUSH2 0x10 JUMPI PUSH1 0x0 DUP1 REVERT JUMPDEST POP PUSH2 0xA1C DUP1 PUSH2 0x20 PUSH1 0x0 CODECOPY PUSH1 0x0 RETURN INVALID PUSH1 0x80 PUSH1 0x40 MSTORE CALLVALUE DUP1 ISZERO PUSH2 0x10 JUMPI PUSH1 0x0 DUP1 REVERT JUMPDEST POP PUSH1 0x4 CALLDATASIZE LT PUSH2 0x9E JUMPI PUSH1 0x0 CALLDATALOAD PUSH1 0xE0 SHR DUP1 PUSH4 0x7D9E10F5 GT PUSH2 0x66 JUMPI DUP1 PUSH4 0x7D9E10F5 EQ PUSH2 0x10D JUMPI DUP1 PUSH4 0xCECBBBDA EQ PUSH2 0x14B JUMPI DUP1 PUSH4 0xCFBE575C EQ PUSH2 0x15E JUMPI DUP1 PUSH4 0xD5473099 EQ PUSH2 0x171 JUMPI DUP1 PUSH4 0xFB9B4BAE EQ PUSH2 0x184 JUMPI PUSH1 0x0 DUP1 REVERT JUMPDEST DUP1 PUSH4 0x3831238E EQ PUSH2 0xA3 JUMPI DUP1 PUSH4 0x5EDA7A76 EQ PUSH2 0xB8 JUMPI DUP1 PUSH4 0x6BE7658B EQ PUSH2 0xD4 JUMPI DUP1 PUSH4 0x6F9A66B8 EQ PUSH2 0xE7 JUMPI DUP1 PUSH4 0x74D0A676 EQ PUSH2 0xFA JUMPI JUMPDEST PUSH1 0x0 DUP1 REVERT JUMPDEST PUSH2 0xB6 PUSH2 0xB1 CALLDATASIZE PUSH1 0x4 PUSH2 0x54C JUMP JUMPDEST PUSH2 0x18D JUMP JUMPDEST STOP JUMPDEST PUSH2 0xC1 PUSH1 0x0 SLOAD DUP2 JUMP JUMPDEST PUSH1 0x40 MLOAD SWAP1 DUP2 MSTORE PUSH1 0x20 ADD JUMPDEST PUSH1 0x40 MLOAD DUP1 SWAP2 SUB SWAP1 RETURN JUMPDEST PUSH2 0xB6 PUSH2 0xE2 CALLDATASIZE PUSH1 0x4 PUSH2 0x62C JUMP JUMPDEST PUSH2 0x265 JUMP JUMPDEST PUSH2 0xB6 PUSH2 0xF5 CALLDATASIZE PUSH1 0x4 PUSH2 0x658 JUMP JUMPDEST PUSH2 0x2BD JUMP JUMPDEST PUSH2 0xB6 PUSH2 0x108 CALLDATASIZE PUSH1 0x4 PUSH2 0x62C JUMP JUMPDEST PUSH2 0x2F0 JUMP JUMPDEST PUSH2 0x13B PUSH2 0x11B CALLDATASIZE PUSH1 0x4 PUSH2 0x62C JUMP JUMPDEST PUSH1 0x2 PUSH1 0x20 SWAP1 DUP2 MSTORE PUSH1 0x0 SWAP3 DUP4 MSTORE PUSH1 0x40 DUP1 DUP5 KECCAK256 SWAP1 SWAP2 MSTORE SWAP1 DUP3 MSTORE SWAP1 KECCAK256 SLOAD PUSH1 0xFF AND DUP2 JUMP JUMPDEST PUSH1 0x40 MLOAD SWAP1 ISZERO ISZERO DUP2 MSTORE PUSH1 0x20 ADD PUSH2 0xCB JUMP JUMPDEST PUSH2 0xC1 PUSH2 0x159 CALLDATASIZE PUSH1 0x4 PUSH2 0x67A JUMP JUMPDEST PUSH2 0x34B JUMP JUMPDEST PUSH2 0xC1 PUSH2 0x16C CALLDATASIZE PUSH1 0x4 PUSH2 0x74B JUMP JUMPDEST PUSH2 0x3C5 JUMP JUMPDEST PUSH2 0xB6 PUSH2 0x17F CALLDATASIZE PUSH1 0x4 PUSH2 0x7E5 JUMP JUMPDEST PUSH2 0x4A0 JUMP JUMPDEST PUSH2 0xC1 PUSH1 0x1 SLOAD DUP2 JUMP JUMPDEST PUSH1 0x40 DUP1 MLOAD PUSH1 0x20 DUP1 DUP3 ADD DUP16 SWAP1 MSTORE PUSH1 0x1 PUSH1 0x1 PUSH1 0xA0 SHL SUB DUP15 DUP2 AND DUP4 DUP6 ADD DUP2 SWAP1 MSTORE DUP15 DUP3 AND PUSH1 0x60 DUP6 ADD DUP2 SWAP1 MSTORE SWAP2 DUP15 AND PUSH1 0x80 DUP6 ADD DUP2 SWAP1 MSTORE PUSH1 0xA0 DUP6 ADD DUP15 SWAP1 MSTORE PUSH1 0xC0 DUP6 ADD DUP14 SWAP1 MSTORE PUSH1 0xE0 DUP6 ADD DUP13 SWAP1 MSTORE PUSH2 0x100 DUP1 DUP7 ADD DUP13 SWAP1 MSTORE DUP7 MLOAD DUP1 DUP8 SUB SWAP1 SWAP2 ADD DUP2 MSTORE PUSH2 0x120 DUP7 ADD SWAP7 DUP8 SWAP1 MSTORE DUP1 MLOAD SWAP5 ADD SWAP4 SWAP1 SWAP4 KECCAK256 SWAP5 MSTORE PUSH2 0x140 DUP4 ADD MSTORE PUSH2 0x160 DUP3 ADD MSTORE PUSH2 0x180 DUP2 ADD DUP11 SWAP1 MSTORE PUSH2 0x1A0 DUP2 ADD DUP10 SWAP1 MSTORE PUSH2 0x1C0 DUP2 ADD DUP9 SWAP1 MSTORE TIMESTAMP PUSH2 0x1E0 DUP3 ADD MSTORE DUP14 SWAP1 DUP3 SWAP1 PUSH32 0xD5520B237C4F3AB12489AAF6A1B373B49E4A288255B3625FE018A3900A84E83A SWAP1 PUSH2 0x200 ADD PUSH1 0x40 MLOAD DUP1 SWAP2 SUB SWAP1 LOG3 POP POP POP POP POP POP POP POP POP POP POP POP POP JUMP JUMPDEST PUSH1 0x0 DUP3 DUP2 MSTORE PUSH1 0x2 PUSH1 0x20 SWAP1 DUP2 MSTORE PUSH1 0x40 DUP1 DUP4 KECCAK256 PUSH1 0x1 PUSH1 0x1 PUSH1 0xA0 SHL SUB DUP6 AND DUP1 DUP6 MSTORE SWAP3 MSTORE DUP1 DUP4 KECCAK256 DUP1 SLOAD PUSH1 0xFF NOT AND SWAP1 SSTORE MLOAD SWAP1 SWAP2 DUP5 SWAP2 PUSH32 0x1C4C9D2E56D0635D11BC47C997C6909A0D7061F55CBB8F4B27386DB37553191C SWAP2 SWAP1 LOG3 POP POP JUMP JUMPDEST PUSH1 0x40 MLOAD CALLER SWAP1 DUP3 SWAP1 DUP5 SWAP1 PUSH32 0xD61CCC6FD5E0788F866425EAD0BE505DA83D52FAF8A038B50CC9F24ACF265382 SWAP1 PUSH1 0x0 SWAP1 LOG4 POP POP JUMP JUMPDEST PUSH1 0x0 DUP3 DUP2 MSTORE PUSH1 0x2 PUSH1 0x20 SWAP1 DUP2 MSTORE PUSH1 0x40 DUP1 DUP4 KECCAK256 PUSH1 0x1 PUSH1 0x1 PUSH1 0xA0 SHL SUB DUP6 AND DUP1 DUP6 MSTORE SWAP3 MSTORE DUP1 DUP4 KECCAK256 DUP1 SLOAD PUSH1 0xFF NOT AND PUSH1 0x1 OR SWAP1 SSTORE MLOAD SWAP1 SWAP2 DUP5 SWAP2 PUSH32 0xF328AC0F8BCAE00933FE87BA0AA2D0D505C1DF94BC9C1AA05B8441C28B74032C SWAP2 SWAP1 LOG3 POP POP JUMP JUMPDEST PUSH1 0x0 PUSH1 0x1 PUSH1 0x0 DUP2 SLOAD PUSH2 0x35C SWAP1 PUSH2 0x85D JUMP JUMPDEST SWAP2 SWAP1 POP DUP2 SWAP1 SSTORE SWAP1 POP DUP10 PUSH1 0x1 PUSH1 0x1 PUSH1 0xA0 SHL SUB AND DUP2 DUP13 PUSH32 0x3ED881D8EE7C42ED2C207830507A64E3367E2B4F79EB99EB02EE8DCEBB6F0F11 DUP13 DUP13 DUP13 DUP13 DUP13 DUP13 DUP13 DUP13 TIMESTAMP PUSH1 0x40 MLOAD PUSH2 0x3AF SWAP10 SWAP9 SWAP8 SWAP7 SWAP6 SWAP5 SWAP4 SWAP3 SWAP2 SWAP1 PUSH2 0x8AD JUMP JUMPDEST PUSH1 0x40 MLOAD DUP1 SWAP2 SUB SWAP1 LOG4 SWAP11 SWAP10 POP POP POP POP POP POP POP POP POP POP JUMP JUMPDEST PUSH1 0x0 DUP1 PUSH1 0x0 DUP2 SLOAD PUSH2 0x3D5 SWAP1 PUSH2 0x85D JUMP JUMPDEST SWAP2 DUP3 SWAP1 SSTORE POP SWAP1 POP PUSH1 0x0 JUMPDEST DUP3 DUP2 LT ISZERO PUSH2 0x44F JUMPI PUSH1 0x0 DUP3 DUP2 MSTORE PUSH1 0x2 PUSH1 0x20 MSTORE PUSH1 0x40 DUP2 KECCAK256 PUSH1 0x1 SWAP2 DUP7 DUP7 DUP6 DUP2 DUP2 LT PUSH2 0x40A JUMPI PUSH2 0x40A PUSH2 0x914 JUMP JUMPDEST SWAP1 POP PUSH1 0x20 MUL ADD PUSH1 0x20 DUP2 ADD SWAP1 PUSH2 0x41F SWAP2 SWAP1 PUSH2 0x92A JUMP JUMPDEST PUSH1 0x1 PUSH1 0x1 PUSH1 0xA0 SHL SUB AND DUP2 MSTORE PUSH1 0x20 DUP2 ADD SWAP2 SWAP1 SWAP2 MSTORE PUSH1 0x40 ADD PUSH1 0x0 KECCAK256 DUP1 SLOAD PUSH1 0xFF NOT AND SWAP2 ISZERO ISZERO SWAP2 SWAP1 SWAP2 OR SWAP1 SSTORE PUSH1 0x1 ADD PUSH2 0x3DF JUMP JUMPDEST POP CALLER PUSH1 0x1 PUSH1 0x1 PUSH1 0xA0 SHL SUB AND DUP2 PUSH32 0x3DC2B49C6AFB62243D06266CDBF1F38EB359E6D274EF996CE11ADC7D5D99B9FA DUP8 DUP8 DUP8 DUP8 PUSH1 0x40 MLOAD PUSH2 0x490 SWAP5 SWAP4 SWAP3 SWAP2 SWAP1 PUSH2 0x94C JUMP JUMPDEST PUSH1 0x40 MLOAD DUP1 SWAP2 SUB SWAP1 LOG3 SWAP5 SWAP4 POP POP POP POP JUMP JUMPDEST DUP6 DUP6 PUSH32 0x624C5B67579DDBC2F54F30327E431662A24F0DA04642EFAF940841A39306535 DUP7 DUP7 DUP7 DUP7 PUSH1 0x40 MLOAD PUSH2 0x4D7 SWAP5 SWAP4 SWAP3 SWAP2 SWAP1 PUSH2 0x9AF JUMP JUMPDEST PUSH1 0x40 MLOAD DUP1 SWAP2 SUB SWAP1 LOG3 POP POP POP POP POP POP JUMP JUMPDEST DUP1 CALLDATALOAD PUSH1 0x1 PUSH1 0x1 PUSH1 0xA0 SHL SUB DUP2 AND DUP2 EQ PUSH2 0x4FE JUMPI PUSH1 0x0 DUP1 REVERT JUMPDEST SWAP2 SWAP1 POP JUMP JUMPDEST PUSH1 0x0 DUP1 DUP4 PUSH1 0x1F DUP5 ADD SLT PUSH2 0x515 JUMPI PUSH1 0x0 DUP1 REVERT JUMPDEST POP DUP2 CALLDATALOAD PUSH8 0xFFFFFFFFFFFFFFFF DUP2 GT ISZERO PUSH2 0x52D JUMPI PUSH1 0x0 DUP1 REVERT JUMPDEST PUSH1 0x20 DUP4 ADD SWAP2 POP DUP4 PUSH1 0x20 DUP3 DUP6 ADD ADD GT ISZERO PUSH2 0x545 JUMPI PUSH1 0x0 DUP1 REVERT JUMPDEST SWAP3 POP SWAP3 SWAP1 POP JUMP JUMPDEST PUSH1 0x0 DUP1 PUSH1 0x0 DUP1 PUSH1 0x0 DUP1 PUSH1 0x0 DUP1 PUSH1 0x0 DUP1 PUSH1 0x0 DUP1 PUSH2 0x140 DUP14 DUP16 SUB SLT ISZERO PUSH2 0x56F JUMPI PUSH1 0x0 DUP1 REVERT JUMPDEST DUP13 CALLDATALOAD SWAP12 POP PUSH2 0x57F PUSH1 0x20 DUP15 ADD PUSH2 0x4E7 JUMP JUMPDEST SWAP11 POP PUSH2 0x58D PUSH1 0x40 DUP15 ADD PUSH2 0x4E7 JUMP JUMPDEST SWAP10 POP PUSH2 0x59B PUSH1 0x60 DUP15 ADD PUSH2 0x4E7 JUMP JUMPDEST SWAP9 POP PUSH1 0x80 DUP14 ADD CALLDATALOAD SWAP8 POP PUSH1 0xA0 DUP14 ADD CALLDATALOAD SWAP7 POP PUSH1 0xC0 DUP14 ADD CALLDATALOAD SWAP6 POP PUSH1 0xE0 DUP14 ADD CALLDATALOAD SWAP5 POP PUSH8 0xFFFFFFFFFFFFFFFF PUSH2 0x100 DUP15 ADD CALLDATALOAD GT ISZERO PUSH2 0x5D3 JUMPI PUSH1 0x0 DUP1 REVERT JUMPDEST PUSH2 0x5E4 DUP15 PUSH2 0x100 DUP16 ADD CALLDATALOAD DUP16 ADD PUSH2 0x503 JUMP JUMPDEST SWAP1 SWAP5 POP SWAP3 POP PUSH8 0xFFFFFFFFFFFFFFFF PUSH2 0x120 DUP15 ADD CALLDATALOAD GT ISZERO PUSH2 0x603 JUMPI PUSH1 0x0 DUP1 REVERT JUMPDEST PUSH2 0x614 DUP15 PUSH2 0x120 DUP16 ADD CALLDATALOAD DUP16 ADD PUSH2 0x503 JUMP JUMPDEST DUP2 SWAP4 POP DUP1 SWAP3 POP POP POP SWAP3 SWAP6 SWAP9 SWAP12 POP SWAP3 SWAP6 SWAP9 SWAP12 POP SWAP3 SWAP6 SWAP9 SWAP12 JUMP JUMPDEST PUSH1 0x0 DUP1 PUSH1 0x40 DUP4 DUP6 SUB SLT ISZERO PUSH2 0x63F JUMPI PUSH1 0x0 DUP1 REVERT JUMPDEST DUP3 CALLDATALOAD SWAP2 POP PUSH2 0x64F PUSH1 0x20 DUP5 ADD PUSH2 0x4E7 JUMP JUMPDEST SWAP1 POP SWAP3 POP SWAP3 SWAP1 POP JUMP JUMPDEST PUSH1 0x0 DUP1 PUSH1 0x40 DUP4 DUP6 SUB SLT ISZERO PUSH2 0x66B JUMPI PUSH1 0x0 DUP1 REVERT JUMPDEST POP POP DUP1 CALLDATALOAD SWAP3 PUSH1 0x20 SWAP1 SWAP2 ADD CALLDATALOAD SWAP2 POP JUMP JUMPDEST PUSH1 0x0 DUP1 PUSH1 0x0 DUP1 PUSH1 0x0 DUP1 PUSH1 0x0 DUP1 PUSH1 0x0 DUP1 PUSH1 0xE0 DUP12 DUP14 SUB SLT ISZERO PUSH2 0x699 JUMPI PUSH1 0x0 DUP1 REVERT JUMPDEST DUP11 CALLDATALOAD SWAP10 POP PUSH2 0x6A9 PUSH1 0x20 DUP13 ADD PUSH2 0x4E7 JUMP JUMPDEST SWAP9 POP PUSH2 0x6B7 PUSH1 0x40 DUP13 ADD PUSH2 0x4E7 JUMP JUMPDEST SWAP8 POP PUSH1 0x60 DUP12 ADD CALLDATALOAD SWAP7 POP PUSH1 0x80 DUP12 ADD CALLDATALOAD PUSH8 0xFFFFFFFFFFFFFFFF DUP1 DUP3 GT ISZERO PUSH2 0x6DB JUMPI PUSH1 0x0 DUP1 REVERT JUMPDEST PUSH2 0x6E7 DUP15 DUP4 DUP16 ADD PUSH2 0x503 JUMP JUMPDEST SWAP1 SWAP9 POP SWAP7 POP PUSH1 0xA0 DUP14 ADD CALLDATALOAD SWAP2 POP DUP1 DUP3 GT ISZERO PUSH2 0x700 JUMPI PUSH1 0x0 DUP1 REVERT JUMPDEST PUSH2 0x70C DUP15 DUP4 DUP16 ADD PUSH2 0x503 JUMP JUMPDEST SWAP1 SWAP7 POP SWAP5 POP PUSH1 0xC0 DUP14 ADD CALLDATALOAD SWAP2 POP DUP1 DUP3 GT ISZERO PUSH2 0x725 JUMPI PUSH1 0x0 DUP1 REVERT JUMPDEST POP PUSH2 0x732 DUP14 DUP3 DUP15 ADD PUSH2 0x503 JUMP JUMPDEST SWAP2 POP DUP1 SWAP4 POP POP DUP1 SWAP2 POP POP SWAP3 SWAP6 SWAP9 SWAP12 SWAP2 SWAP5 SWAP8 SWAP11 POP SWAP3 SWAP6 SWAP9 POP JUMP JUMPDEST PUSH1 0x0 DUP1 PUSH1 0x0 DUP1 PUSH1 0x40 DUP6 DUP8 SUB SLT ISZERO PUSH2 0x761 JUMPI PUSH1 0x0 DUP1 REVERT JUMPDEST DUP5 CALLDATALOAD PUSH8 0xFFFFFFFFFFFFFFFF DUP1 DUP3 GT ISZERO PUSH2 0x779 JUMPI PUSH1 0x0 DUP1 REVERT JUMPDEST PUSH2 0x785 DUP9 DUP4 DUP10 ADD PUSH2 0x503 JUMP JUMPDEST SWAP1 SWAP7 POP SWAP5 POP PUSH1 0x20 DUP8 ADD CALLDATALOAD SWAP2 POP DUP1 DUP3 GT ISZERO PUSH2 0x79E JUMPI PUSH1 0x0 DUP1 REVERT JUMPDEST DUP2 DUP8 ADD SWAP2 POP DUP8 PUSH1 0x1F DUP4 ADD SLT PUSH2 0x7B2 JUMPI PUSH1 0x0 DUP1 REVERT JUMPDEST DUP2 CALLDATALOAD DUP2 DUP2 GT ISZERO PUSH2 0x7C1 JUMPI PUSH1 0x0 DUP1 REVERT JUMPDEST DUP9 PUSH1 0x20 DUP3 PUSH1 0x5 SHL DUP6 ADD ADD GT ISZERO PUSH2 0x7D6 JUMPI PUSH1 0x0 DUP1 REVERT JUMPDEST SWAP6 SWAP9 SWAP5 SWAP8 POP POP PUSH1 0x20 ADD SWAP5 POP POP POP JUMP JUMPDEST PUSH1 0x0 DUP1 PUSH1 0x0 DUP1 PUSH1 0x0 DUP1 PUSH1 0xA0 DUP8 DUP10 SUB SLT ISZERO PUSH2 0x7FE JUMPI PUSH1 0x0 DUP1 REVERT JUMPDEST DUP7 CALLDATALOAD SWAP6 POP PUSH1 0x20 DUP8 ADD CALLDATALOAD SWAP5 POP PUSH2 0x815 PUSH1 0x40 DUP9 ADD PUSH2 0x4E7 JUMP JUMPDEST SWAP4 POP PUSH2 0x823 PUSH1 0x60 DUP9 ADD PUSH2 0x4E7 JUMP JUMPDEST SWAP3 POP PUSH1 0x80 DUP8 ADD CALLDATALOAD PUSH8 0xFFFFFFFFFFFFFFFF DUP2 GT ISZERO PUSH2 0x83F JUMPI PUSH1 0x0 DUP1 REVERT JUMPDEST PUSH2 0x84B DUP10 DUP3 DUP11 ADD PUSH2 0x503 JUMP JUMPDEST SWAP8 SWAP11 SWAP7 SWAP10 POP SWAP5 SWAP8 POP SWAP3 SWAP6 SWAP4 SWAP5 SWAP3 POP POP POP JUMP JUMPDEST PUSH1 0x0 PUSH1 0x1 DUP3 ADD PUSH2 0x87D JUMPI PUSH4 0x4E487B71 PUSH1 0xE0 SHL PUSH1 0x0 MSTORE PUSH1 0x11 PUSH1 0x4 MSTORE PUSH1 0x24 PUSH1 0x0 REVERT JUMPDEST POP PUSH1 0x1 ADD SWAP1 JUMP JUMPDEST DUP2 DUP4 MSTORE DUP2 DUP2 PUSH1 0x20 DUP6 ADD CALLDATACOPY POP PUSH1 0x0 DUP3 DUP3 ADD PUSH1 0x20 SWAP1 DUP2 ADD SWAP2 SWAP1 SWAP2 MSTORE PUSH1 0x1F SWAP1 SWAP2 ADD PUSH1 0x1F NOT AND SWAP1 SWAP2 ADD ADD SWAP1 JUMP JUMPDEST PUSH1 0x1 DUP1 PUSH1 0xA0 SHL SUB DUP11 AND DUP2 MSTORE DUP9 PUSH1 0x20 DUP3 ADD MSTORE PUSH1 0xC0 PUSH1 0x40 DUP3 ADD MSTORE PUSH1 0x0 PUSH2 0x8D5 PUSH1 0xC0 DUP4 ADD DUP10 DUP12 PUSH2 0x884 JUMP JUMPDEST DUP3 DUP2 SUB PUSH1 0x60 DUP5 ADD MSTORE PUSH2 0x8E8 DUP2 DUP9 DUP11 PUSH2 0x884 JUMP JUMPDEST SWAP1 POP DUP3 DUP2 SUB PUSH1 0x80 DUP5 ADD MSTORE PUSH2 0x8FD DUP2 DUP7 DUP9 PUSH2 0x884 JUMP JUMPDEST SWAP2 POP POP DUP3 PUSH1 0xA0 DUP4 ADD MSTORE SWAP11 SWAP10 POP POP POP POP POP POP POP POP POP POP JUMP JUMPDEST PUSH4 0x4E487B71 PUSH1 0xE0 SHL PUSH1 0x0 MSTORE PUSH1 0x32 PUSH1 0x4 MSTORE PUSH1 0x24 PUSH1 0x0 REVERT JUMPDEST PUSH1 0x0 PUSH1 0x20 DUP3 DUP5 SUB SLT ISZERO PUSH2 0x93C JUMPI PUSH1 0x0 DUP1 REVERT JUMPDEST PUSH2 0x945 DUP3 PUSH2 0x4E7 JUMP JUMPDEST SWAP4 SWAP3 POP POP POP JUMP JUMPDEST PUSH1 0x40 DUP2 MSTORE PUSH1 0x0 PUSH2 0x960 PUSH1 0x40 DUP4 ADD DUP7 DUP9 PUSH2 0x884 JUMP JUMPDEST DUP3 DUP2 SUB PUSH1 0x20 DUP5 DUP2 ADD SWAP2 SWAP1 SWAP2 MSTORE DUP5 DUP3 MSTORE DUP6 SWAP2 DUP2 ADD PUSH1 0x0 JUMPDEST DUP7 DUP2 LT ISZERO PUSH2 0x9A2 JUMPI PUSH1 0x1 PUSH1 0x1 PUSH1 0xA0 SHL SUB PUSH2 0x98F DUP6 PUSH2 0x4E7 JUMP JUMPDEST AND DUP3 MSTORE SWAP3 DUP3 ADD SWAP3 SWAP1 DUP3 ADD SWAP1 PUSH1 0x1 ADD PUSH2 0x976 JUMP JUMPDEST POP SWAP9 SWAP8 POP POP POP POP POP POP POP POP JUMP JUMPDEST PUSH1 0x1 PUSH1 0x1 PUSH1 0xA0 SHL SUB DUP6 DUP2 AND DUP3 MSTORE DUP5 AND PUSH1 0x20 DUP3 ADD MSTORE PUSH1 0x60 PUSH1 0x40 DUP3 ADD DUP2 SWAP1 MSTORE PUSH1 0x0 SWAP1 PUSH2 0x9DC SWAP1 DUP4 ADD DUP5 DUP7 PUSH2 0x884 JUMP JUMPDEST SWAP7 SWAP6 POP POP POP POP POP POP JUMP INVALID LOG2 PUSH5 0x6970667358 0x22 SLT KECCAK256 0x4F DUP1 0x2B SWAP7 DUP4 BALANCE 0xB0 0xED PUSH29 0xD0AC24E7B75E526918175F1DB442BC3E5A6B924EA5E3FB64736F6C6343 STOP ADDMOD XOR STOP CALLER "},"methodIdentifiers":{"addExpense(uint256,address,address,uint256,bytes,string,string)":"cecbbbda","addMember(uint256,address)":"74d0a676","createGroup(string,address[])":"cfbe575c","createSettlementIntent(uint256,bytes32,address,address,string)":"d5473099","finalizeSettlement(uint256,address,address,address,uint256,uint256,bytes32,bytes32,bytes,bytes)":"3831238e","isMember(uint256,address)":"7d9e10f5","nextExpenseId()":"fb9b4bae","nextGroupId()":"5eda7a76","removeMember(uint256,address)":"6be7658b","voidExpense(uint256,uint256)":"6f9a66b8"}}}}}