{
  "_format": "hh-sol-artifact-1",
  "contractName": "Ledger",
  "sourceName": "contracts/Ledger.sol",
  "abi": [
    {
      "anonymous": false,
      "inputs": [
        {
          "indexed": true,
          "internalType": "uint256",
          "name": "groupId",
          "type": "uint256"
        },
        {
          "indexed": true,
          "internalType": "uint256",
          "name": "expenseId",
          "type": "uint256"
        },
        {
          "indexed": true,
          "internalType": "address",
          "name": "payer",
          "type": "address"
        },
        {
          "indexed": false,
          "internalType": "address",
          "name": "token",
          "type": "address"
        },
        {
          "indexed": false,
          "internalType": "uint256",
          "name": "amount",
          "type": "uint256"
        },
        {
          "indexed": false,
          "internalType": "bytes",
          "name": "splitData",
          "type": "bytes"
        },
        {
          "indexed": false,
          "internalType": "string",
          "name": "cid",
          "type": "string"
        },
        {
          "indexed": false,
          "internalType": "string",
          "name": "memo",
          "type": "string"
        },
        {
          "indexed": false,
          "internalType": "uint256",
          "name": "timestamp",
          "type": "uint256"
        }
      ],
      "name": "ExpenseAdded",
      "type": "event"
    },
    {
      "anonymous": false,
      "inputs": [
        {
          "indexed": true,
          "internalType": "uint256",
          "name": "groupId",
          "type": "uint256"
        },
        {
          "indexed": true,
          "internalType": "uint256",
          "name": "expenseId",
          "type": "uint256"
        },
        {
          "indexed": true,
          "internalType": "address",
          "name": "actor",
          "type": "address"
        }
      ],
      "name": "ExpenseVoided",
      "type": "event"
    },
    {
      "anonymous": false,
      "inputs": [
        {
          "indexed": true,
          "internalType": "uint256",
          "name": "groupId",
          "type": "uint256"
        },
        {
          "indexed": true,
          "internalType": "address",
          "name": "creator",
          "type": "address"
        },
        {
          "indexed": false,
          "internalType": "string",
          "name": "name",
          "type": "string"
        },
        {
          "indexed": false,
          "internalType": "address[]",
          "name": "members",
          "type": "address[]"
        }
      ],
      "name": "GroupCreated",
      "type": "event"
    },
    {
      "anonymous": false,
      "inputs": [
        {
          "indexed": true,
          "internalType": "uint256",
          "name": "groupId",
          "type": "uint256"
        },
        {
          "indexed": true,
          "internalType": "address",
          "name": "member",
          "type": "address"
        }
      ],
      "name": "MemberAdded",
      "type": "event"
    },
    {
      "anonymous": false,
      "inputs": [
        {
          "indexed": true,
          "internalType": "uint256",
          "name": "groupId",
          "type": "uint256"
        },
        {
          "indexed": true,
          "internalType": "address",
          "name": "member",
          "type": "address"
        }
      ],
      "name": "MemberRemoved",
      "type": "event"
    },
    {
      "anonymous": false,
      "inputs": [
        {
          "indexed": true,
          "internalType": "bytes32",
          "name": "receiptHash",
          "type": "bytes32"
        },
        {
          "indexed": true,
          "internalType": "uint256",
          "name": "groupId",
          "type": "uint256"
        },
        {
          "indexed": false,
          "internalType": "address",
          "name": "debtor",
          "type": "address"
        },
        {
          "indexed": false,
          "internalType": "address",
          "name": "creditor",
          "type": "address"
        },
        {
          "indexed": false,
          "internalType": "address",
          "name": "token",
          "type": "address"
        },
        {
          "indexed": false,
          "internalType": "uint256",
          "name": "amount",
          "type": "uint256"
        },
        {
          "indexed": false,
          "internalType": "uint256",
          "name": "dstChainId",
          "type": "uint256"
        },
        {
          "indexed": false,
          "internalType": "bytes32",
          "name": "dstTxHash",
          "type": "bytes32"
        },
        {
          "indexed": false,
          "internalType": "uint256",
          "name": "timestamp",
          "type": "uint256"
        }
      ],
      "name": "SettlementFinalized",
      "type": "event"
    },
    {
      "anonymous": false,
      "inputs": [
        {
          "indexed": true,
          "internalType": "bytes32",
          "name": "intentHash",
          "type": "bytes32"
        },
        {
          "indexed": true,
          "internalType": "uint256",
          "name": "groupId",
          "type": "uint256"
        },
        {
          "indexed": false,
          "internalType": "address",
          "name": "debtor",
          "type": "address"
        },
        {
          "indexed": false,
          "internalType": "address",
          "name": "creditor",
          "type": "address"
        },
        {
          "indexed": false,
          "internalType": "string",
          "name": "routeId",
          "type": "string"
        }
      ],
      "name": "SettlementIntentCreated",
      "type": "event"
    },
    {
      "inputs": [
        {
          "internalType": "uint256",
          "name": "groupId",
          "type": "uint256"
        },
        {
          "internalType": "address",
          "name": "payer",
          "type": "address"
        },
        {
          "internalType": "address",
          "name": "token",
          "type": "address"
        },
        {
          "internalType": "uint256",
          "name": "amount",
          "type": "uint256"
        },
        {
          "internalType": "bytes",
          "name": "splitData",
          "type": "bytes"
        },
        {
          "internalType": "string",
          "name": "cid",
          "type": "string"
        },
        {
          "internalType": "string",
          "name": "memo",
          "type": "string"
        }
      ],
      "name": "addExpense",
      "outputs": [
        {
          "internalType": "uint256",
          "name": "eid",
          "type": "uint256"
        }
      ],
      "stateMutability": "nonpayable",
      "type": "function"
    },
    {
      "inputs": [
        {
          "internalType": "uint256",
          "name": "groupId",
          "type": "uint256"
        },
        {
          "internalType": "address",
          "name": "member",
          "type": "address"
        }
      ],
      "name": "addMember",
      "outputs": [],
      "stateMutability": "nonpayable",
      "type": "function"
    },
    {
      "inputs": [
        {
          "internalType": "string",
          "name": "name",
          "type": "string"
        },
        {
          "internalType": "address[]",
          "name": "members",
          "type": "address[]"
        }
      ],
      "name": "createGroup",
      "outputs": [
        {
          "internalType": "uint256",
          "name": "gid",
          "type": "uint256"
        }
      ],
      "stateMutability": "nonpayable",
      "type": "function"
    },
    {
      "inputs": [
        {
          "internalType": "uint256",
          "name": "groupId",
          "type": "uint256"
        },
        {
          "internalType": "bytes32",
          "name": "intentHash",
          "type": "bytes32"
        },
        {
          "internalType": "address",
          "name": "debtor",
          "type": "address"
        },
        {
          "internalType": "address",
          "name": "creditor",
          "type": "address"
        },
        {
          "internalType": "string",
          "name": "routeId",
          "type": "string"
        }
      ],
      "name": "createSettlementIntent",
      "outputs": [],
      "stateMutability": "nonpayable",
      "type": "function"
    },
    {
      "inputs": [
        {
          "internalType": "uint256",
          "name": "groupId",
          "type": "uint256"
        },
        {
          "internalType": "address",
          "name": "debtor",
          "type": "address"
        },
        {
          "internalType": "address",
          "name": "creditor",
          "type": "address"
        },
        {
          "internalType": "address",
          "name": "token",
          "type": "address"
        },
        {
          "internalType": "uint256",
          "name": "amount",
          "type": "uint256"
        },
        {
          "internalType": "uint256",
          "name": "dstChainId",
          "type": "uint256"
        },
        {
          "internalType": "bytes32",
          "name": "dstTxHash",
          "type": "bytes32"
        },
        {
          "internalType": "bytes32",
          "name": "settleIntentHash",
          "type": "bytes32"
        },
        {
          "internalType": "bytes",
          "name": "",
          "type": "bytes"
        },
        {
          "internalType": "bytes",
          "name": "",
          "type": "bytes"
        }
      ],
      "name": "finalizeSettlement",
      "outputs": [],
      "stateMutability": "nonpayable",
      "type": "function"
    },
    {
      "inputs": [
        {
          "internalType": "uint256",
          "name": "",
          "type": "uint256"
        },
        {
          "internalType": "address",
          "name": "",
          "type": "address"
        }
      ],
      "name": "isMember",
      "outputs": [
        {
          "internalType": "bool",
          "name": "",
          "type": "bool"
        }
      ],
      "stateMutability": "view",
      "type": "function"
    },
    {
      "inputs": [],
      "name": "nextExpenseId",
      "outputs": [
        {
          "internalType": "uint256",
          "name": "",
          "type": "uint256"
        }
      ],
      "stateMutability": "view",
      "type": "function"
    },
    {
      "inputs": [],
      "name": "nextGroupId",
      "outputs": [
        {
          "internalType": "uint256",
          "name": "",
          "type": "uint256"
        }
      ],
      "stateMutability": "view",
      "type": "function"
    },
    {
      "inputs": [
        {
          "internalType": "uint256",
          "name": "groupId",
          "type": "uint256"
        },
        {
          "internalType": "address",
          "name": "member",
          "type": "address"
        }
      ],
      "name": "removeMember",
      "outputs": [],
      "stateMutability": "nonpayable",
      "type": "function"
    },
    {
      "inputs": [
        {
          "internalType": "uint256",
          "name": "groupId",
          "type": "uint256"
        },
        {
          "internalType": "uint256",
          "name": "expenseId",
          "type": "uint256"
        }
      ],
      "name": "voidExpense",
      "outputs": [],
      "stateMutability": "nonpayable",
      "type": "function"
    }
  ],
  "bytecode": "0x608060405234801561001057600080fd5b50610a1c806100206000396000f3fe608060405234801561001057600080fd5b506004361061009e5760003560e01c80637d9e10f5116100665780637d9e10f51461010d578063cecbbbda1461014b578063cfbe575c1461015e578063d547309914610171578063fb9b4bae1461018457600080fd5b80633831238e146100a35780635eda7a76146100b85780636be7658b146100d45780636f9a66b8146100e757806374d0a676146100fa575b600080fd5b6100b66100b136600461054c565b61018d565b005b6100c160005481565b6040519081526020015b60405180910390f35b6100b66100e236600461062c565b610265565b6100b66100f5366004610658565b6102bd565b6100b661010836600461062c565b6102f0565b61013b61011b36600461062c565b600260209081526000928352604080842090915290825290205460ff1681565b60405190151581526020016100cb565b6100c161015936600461067a565b61034b565b6100c161016c36600461074b565b6103c5565b6100b661017f3660046107e5565b6104a0565b6100c160015481565b6040805160208082018f90526001600160a01b038e81168385018190528e821660608501819052918e166080850181905260a085018e905260c085018d905260e085018c90526101008086018c9052865180870390910181526101208601968790528051940193909320945261014083015261016082015261018081018a90526101a081018990526101c08101889052426101e08201528d9082907fd5520b237c4f3ab12489aaf6a1b373b49e4a288255b3625fe018a3900a84e83a906102000160405180910390a350505050505050505050505050565b60008281526002602090815260408083206001600160a01b0385168085529252808320805460ff1916905551909184917f1c4c9d2e56d0635d11bc47c997c6909a0d7061f55cbb8f4b27386db37553191c9190a35050565b6040513390829084907fd61ccc6fd5e0788f866425ead0be505da83d52faf8a038b50cc9f24acf26538290600090a45050565b60008281526002602090815260408083206001600160a01b0385168085529252808320805460ff1916600117905551909184917ff328ac0f8bcae00933fe87ba0aa2d0d505c1df94bc9c1aa05b8441c28b74032c9190a35050565b600060016000815461035c9061085d565b9190508190559050896001600160a01b0316818c7f3ed881d8ee7c42ed2c207830507a64e3367e2b4f79eb99eb02ee8dcebb6f0f118c8c8c8c8c8c8c8c426040516103af999897969594939291906108ad565b60405180910390a49a9950505050505050505050565b600080600081546103d59061085d565b9182905550905060005b8281101561044f57600082815260026020526040812060019186868581811061040a5761040a610914565b905060200201602081019061041f919061092a565b6001600160a01b031681526020810191909152604001600020805460ff19169115159190911790556001016103df565b50336001600160a01b0316817f3dc2b49c6afb62243d06266cdbf1f38eb359e6d274ef996ce11adc7d5d99b9fa87878787604051610490949392919061094c565b60405180910390a3949350505050565b85857f0624c5b67579ddbc2f54f30327e431662a24f0da04642efaf940841a39306535868686866040516104d794939291906109af565b60405180910390a3505050505050565b80356001600160a01b03811681146104fe57600080fd5b919050565b60008083601f84011261051557600080fd5b50813567ffffffffffffffff81111561052d57600080fd5b60208301915083602082850101111561054557600080fd5b9250929050565b6000806000806000806000806000806000806101408d8f03121561056f57600080fd5b8c359b5061057f60208e016104e7565b9a5061058d60408e016104e7565b995061059b60608e016104e7565b985060808d0135975060a08d0135965060c08d0135955060e08d0135945067ffffffffffffffff6101008e013511156105d357600080fd5b6105e48e6101008f01358f01610503565b909450925067ffffffffffffffff6101208e0135111561060357600080fd5b6106148e6101208f01358f01610503565b81935080925050509295989b509295989b509295989b565b6000806040838503121561063f57600080fd5b8235915061064f602084016104e7565b90509250929050565b6000806040838503121561066b57600080fd5b50508035926020909101359150565b60008060008060008060008060008060e08b8d03121561069957600080fd5b8a3599506106a960208c016104e7565b98506106b760408c016104e7565b975060608b0135965060808b013567ffffffffffffffff808211156106db57600080fd5b6106e78e838f01610503565b909850965060a08d013591508082111561070057600080fd5b61070c8e838f01610503565b909650945060c08d013591508082111561072557600080fd5b506107328d828e01610503565b915080935050809150509295989b9194979a5092959850565b6000806000806040858703121561076157600080fd5b843567ffffffffffffffff8082111561077957600080fd5b61078588838901610503565b9096509450602087013591508082111561079e57600080fd5b818701915087601f8301126107b257600080fd5b8135818111156107c157600080fd5b8860208260051b85010111156107d657600080fd5b95989497505060200194505050565b60008060008060008060a087890312156107fe57600080fd5b8635955060208701359450610815604088016104e7565b9350610823606088016104e7565b9250608087013567ffffffffffffffff81111561083f57600080fd5b61084b89828a01610503565b979a9699509497509295939492505050565b60006001820161087d57634e487b7160e01b600052601160045260246000fd5b5060010190565b81835281816020850137506000828201602090810191909152601f909101601f19169091010190565b60018060a01b038a16815288602082015260c0604082015260006108d560c08301898b610884565b82810360608401526108e881888a610884565b905082810360808401526108fd818688610884565b9150508260a08301529a9950505050505050505050565b634e487b7160e01b600052603260045260246000fd5b60006020828403121561093c57600080fd5b610945826104e7565b9392505050565b604081526000610960604083018688610884565b8281036020848101919091528482528591810160005b868110156109a2576001600160a01b0361098f856104e7565b1682529282019290820190600101610976565b5098975050505050505050565b6001600160a01b038581168252841660208201526060604082018190526000906109dc9083018486610884565b969550505050505056fea26469706673582212204f802b968331b0ed7cd0ac24e7b75e526918175f1db442bc3e5a6b924ea5e3fb64736f6c63430008180033",
  "linkReferences": {},
  "deployedLinkReferences": {}
}